{
  "_format": "hh-sol-artifact-1",
  "contractName": "Useless",
  "sourceName": "contracts/Useless.sol",
  "abi": [
    {
      "inputs": [],
      "stateMutability": "nonpayable",
      "type": "constructor"
    },
    {
      "anonymous": false,
      "inputs": [
        {
          "indexed": false,
          "internalType": "address",
          "name": "_you",
          "type": "address"
        }
      ],
      "name": "Updated",
      "type": "event"
    },
    {
      "inputs": [],
      "name": "getState",
      "outputs": [
        {
          "internalType": "uint256",
          "name": "",
          "type": "uint256"
        }
      ],
      "stateMutability": "view",
      "type": "function"
    },
    {
      "inputs": [],
      "name": "hash",
      "outputs": [
        {
          "internalType": "uint256",
          "name": "",
          "type": "uint256"
        }
      ],
      "stateMutability": "view",
      "type": "function"
    },
    {
      "inputs": [
        {
          "internalType": "uint256[8]",
          "name": "proof",
          "type": "uint256[8]"
        },
        {
          "internalType": "uint256[1]",
          "name": "input",
          "type": "uint256[1]"
        }
      ],
      "name": "setState",
      "outputs": [],
      "stateMutability": "nonpayable",
      "type": "function"
    }
  ],
  "bytecode": "0x60806040527f107d2a85de341bcfbfd166998699fc6b43021b066b4b8f150ca6ab6bea03229f600055600060015534801561003957600080fd5b50604051610046906100a8565b604051809103906000f080158015610062573d6000803e3d6000fd5b50600260006101000a81548173ffffffffffffffffffffffffffffffffffffffff021916908373ffffffffffffffffffffffffffffffffffffffff1602179055506100b5565b6122c480610c0b83390190565b610b47806100c46000396000f3fe608060405234801561001057600080fd5b50600436106100415760003560e01c806309bd5a601461004657806312a24e95146100645780631865c57d14610080575b600080fd5b61004e61009e565b60405161005b919061085a565b60405180910390f35b61007e60048036038101906100799190610595565b6100a4565b005b61008861044d565b604051610095919061085a565b60405180910390f35b60005481565b60006040518060400160405280846000600881106100eb577f4e487b7100000000000000000000000000000000000000000000000000000000600052603260045260246000fd5b602002015181526020018460016008811061012f577f4e487b7100000000000000000000000000000000000000000000000000000000600052603260045260246000fd5b602002015181525090506000604051806040016040528060405180604001604052808760026008811061018b577f4e487b7100000000000000000000000000000000000000000000000000000000600052603260045260246000fd5b60200201518152602001876003600881106101cf577f4e487b7100000000000000000000000000000000000000000000000000000000600052603260045260246000fd5b60200201518152508152602001604051806040016040528087600460088110610221577f4e487b7100000000000000000000000000000000000000000000000000000000600052603260045260246000fd5b6020020151815260200187600560088110610265577f4e487b7100000000000000000000000000000000000000000000000000000000600052603260045260246000fd5b6020020151815250815250905060006040518060400160405280866006600881106102b9577f4e487b7100000000000000000000000000000000000000000000000000000000600052603260045260246000fd5b60200201518152602001866007600881106102fd577f4e487b7100000000000000000000000000000000000000000000000000000000600052603260045260246000fd5b60200201518152509050600260009054906101000a900473ffffffffffffffffffffffffffffffffffffffff1673ffffffffffffffffffffffffffffffffffffffff166343753b4d848484886040518563ffffffff1660e01b815260040161036894939291906107f3565b60206040518083038186803b15801561038057600080fd5b505afa158015610394573d6000803e3d6000fd5b505050506040513d601f19601f820116820180604052508101906103b891906105d3565b6103f7576040517f08c379a00000000000000000000000000000000000000000000000000000000081526004016103ee9061083a565b60405180910390fd5b6001600081548092919061040a90610a02565b91905055507fe00da2178806f37f69815e9ed5ed3072ec1d55206d60916d99b469c7daa421e43360405161043e91906107d8565b60405180910390a15050505050565b6000600154905090565b600061046a6104658461089a565b610875565b9050808285602086028201111561048057600080fd5b60005b858110156104b057816104968882610580565b845260208401935060208301925050600181019050610483565b5050509392505050565b60006104cd6104c8846108c0565b610875565b905080828560208602820111156104e357600080fd5b60005b8581101561051357816104f98882610580565b8452602084019350602083019250506001810190506104e6565b5050509392505050565b600082601f83011261052e57600080fd5b600161053b848285610457565b91505092915050565b600082601f83011261055557600080fd5b60086105628482856104ba565b91505092915050565b60008151905061057a81610ae3565b92915050565b60008135905061058f81610afa565b92915050565b60008061012083850312156105a957600080fd5b60006105b785828601610544565b9250506101006105c98582860161051d565b9150509250929050565b6000602082840312156105e557600080fd5b60006105f38482850161056b565b91505092915050565b600061060883836106e9565b60408301905092915050565b600061062083836107ba565b60208301905092915050565b61063581610989565b82525050565b61064481610904565b61064e818461094c565b9250610659826108e6565b8060005b8381101561068a57815161067187826105fc565b965061067c83610925565b92505060018101905061065d565b505050505050565b61069b8161090f565b6106a58184610957565b92506106b0826108f0565b8060005b838110156106e15781516106c88782610614565b96506106d383610932565b9250506001810190506106b4565b505050505050565b6106f28161091a565b6106fc8184610962565b9250610707826108fa565b8060005b8381101561073857815161071f8782610614565b965061072a8361093f565b92505060018101905061070b565b505050505050565b6107498161091a565b610753818461096d565b925061075e826108fa565b8060005b8381101561078f5781516107768782610614565b96506107818361093f565b925050600181019050610762565b505050505050565b60006107a4600d83610978565b91506107af82610aba565b602082019050919050565b6107c3816109c7565b82525050565b6107d2816109c7565b82525050565b60006020820190506107ed600083018461062c565b92915050565b6000610120820190506108096000830187610740565b610816604083018661063b565b61082360c0830185610740565b610831610100830184610692565b95945050505050565b6000602082019050818103600083015261085381610797565b9050919050565b600060208201905061086f60008301846107c9565b92915050565b600061087f610890565b905061088b82826109d1565b919050565b6000604051905090565b600067ffffffffffffffff8211156108b5576108b4610a7a565b5b602082029050919050565b600067ffffffffffffffff8211156108db576108da610a7a565b5b602082029050919050565b6000819050919050565b6000819050919050565b6000819050919050565b600060029050919050565b600060019050919050565b600060029050919050565b6000602082019050919050565b6000602082019050919050565b6000602082019050919050565b600081905092915050565b600081905092915050565b600081905092915050565b600081905092915050565b600082825260208201905092915050565b6000610994826109a7565b9050919050565b60008115159050919050565b600073ffffffffffffffffffffffffffffffffffffffff82169050919050565b6000819050919050565b6109da82610aa9565b810181811067ffffffffffffffff821117156109f9576109f8610a7a565b5b80604052505050565b6000610a0d826109c7565b91507fffffffffffffffffffffffffffffffffffffffffffffffffffffffffffffffff821415610a4057610a3f610a4b565b5b600182019050919050565b7f4e487b7100000000000000000000000000000000000000000000000000000000600052601160045260246000fd5b7f4e487b7100000000000000000000000000000000000000000000000000000000600052604160045260246000fd5b6000601f19601f8301169050919050565b7f696e76616c69642070726f6f6600000000000000000000000000000000000000600082015250565b610aec8161099b565b8114610af757600080fd5b50565b610b03816109c7565b8114610b0e57600080fd5b5056fea2646970667358221220d4e181c6be1b3dfc0a302e9ce253c4078d5e818a195718a7840c2cba5d3031d764736f6c63430008040033608060405234801561001057600080fd5b506122a4806100206000396000f3fe608060405234801561001057600080fd5b506004361061002b5760003560e01c806343753b4d14610030575b600080fd5b61004a60048036038101906100459190611c55565b610060565b6040516100579190611d9b565b60405180910390f35b600061006a611960565b6040518060400160405280876000600281106100af577f4e487b7100000000000000000000000000000000000000000000000000000000600052603260045260246000fd5b60200201518152602001876001600281106100f3577f4e487b7100000000000000000000000000000000000000000000000000000000600052603260045260246000fd5b602002015181525081600001819052506040518060400160405280604051806040016040528088600060028110610153577f4e487b7100000000000000000000000000000000000000000000000000000000600052603260045260246000fd5b6020020151600060028110610191577f4e487b7100000000000000000000000000000000000000000000000000000000600052603260045260246000fd5b60200201518152602001886000600281106101d5577f4e487b7100000000000000000000000000000000000000000000000000000000600052603260045260246000fd5b6020020151600160028110610213577f4e487b7100000000000000000000000000000000000000000000000000000000600052603260045260246000fd5b60200201518152508152602001604051806040016040528088600160028110610265577f4e487b7100000000000000000000000000000000000000000000000000000000600052603260045260246000fd5b60200201516000600281106102a3577f4e487b7100000000000000000000000000000000000000000000000000000000600052603260045260246000fd5b60200201518152602001886001600281106102e7577f4e487b7100000000000000000000000000000000000000000000000000000000600052603260045260246000fd5b6020020151600160028110610325577f4e487b7100000000000000000000000000000000000000000000000000000000600052603260045260246000fd5b6020020151815250815250816020018190525060405180604001604052808560006002811061037d577f4e487b7100000000000000000000000000000000000000000000000000000000600052603260045260246000fd5b60200201518152602001856001600281106103c1577f4e487b7100000000000000000000000000000000000000000000000000000000600052603260045260246000fd5b602002015181525081604001819052506000600167ffffffffffffffff811115610414577f4e487b7100000000000000000000000000000000000000000000000000000000600052604160045260246000fd5b6040519080825280602002602001820160405280156104425781602001602082028036833780820191505090505b50905060005b60018110156104e75784816001811061048a577f4e487b7100000000000000000000000000000000000000000000000000000000600052603260045260246000fd5b60200201518282815181106104c8577f4e487b7100000000000000000000000000000000000000000000000000000000600052603260045260246000fd5b60200260200101818152505080806104df90612049565b915050610448565b5060006104f48284610514565b14156105055760019250505061050c565b6000925050505b949350505050565b6000807f30644e72e131a029b85045b68181585d2833e84879b9709143e1f593f00000019050600061054461079f565b90508060800151516001865161055a9190611f1e565b1461059a576040517f08c379a000000000000000000000000000000000000000000000000000000000815260040161059190611db6565b60405180910390fd5b60006040518060400160405280600081526020016000815250905060005b86518110156106fb57838782815181106105fb577f4e487b7100000000000000000000000000000000000000000000000000000000600052603260045260246000fd5b602002602001015110610643576040517f08c379a000000000000000000000000000000000000000000000000000000000815260040161063a90611df6565b60405180910390fd5b6106e6826106e1856080015160018561065c9190611f1e565b81518110610693577f4e487b7100000000000000000000000000000000000000000000000000000000600052603260045260246000fd5b60200260200101518a85815181106106d4577f4e487b7100000000000000000000000000000000000000000000000000000000600052603260045260246000fd5b6020026020010151610c15565b610d64565b915080806106f390612049565b9150506105b8565b5061074b81836080015160008151811061073e577f4e487b7100000000000000000000000000000000000000000000000000000000600052603260045260246000fd5b6020026020010151610d64565b905061078161075d8660000151610eff565b8660200151846000015185602001518587604001518b604001518960600151610fa4565b6107915760019350505050610799565b600093505050505b92915050565b6107a7611993565b60405180604001604052807f2d4d9aa7e302d9df41749d5507949d05dbea33fbb16c643b22f599a2be6df2e281526020017f14bedd503c37ceb061d8ec60209fe345ce89830a19230301f076caff004d19268152508160000181905250604051806040016040528060405180604001604052807f0967032fcbf776d1afc985f88877f182d38480a653f2decaa9794cbc3bf3060c81526020017f0e187847ad4c798374d0d6732bf501847dd68bc0e071241e0213bc7fc13db7ab815250815260200160405180604001604052807f304cfbd1e08a704a99f5e847d93f8c3caafddec46b7a0d379da69a4d112346a781526020017f1739c1b1a457a8c7313123d24d2f9192f896b7c63eea05a9d57f06547ad0cec88152508152508160200181905250604051806040016040528060405180604001604052807f198e9393920d483a7260bfb731fb5d25f1aa493335a9e71297e485b7aef312c281526020017f1800deef121f1e76426a00665e5c4479674322d4f75edadd46debd5cd992f6ed815250815260200160405180604001604052807f090689d0585ff075ec9e99ad690c3395bc4b313370b38ef355acdadcd122975b81526020017f12c85ea5db8c6deb4aab71808dcb408fe3d1e7690c43d37b4ce6cc0166fa7daa8152508152508160400181905250604051806040016040528060405180604001604052807f2ecfc70875cc3e16e661354a0c7b8d2016d1f4093cb6b30ef164c5d10f91ebfd81526020017f052757557db49bfeda9f535bc3ef8e5a51fd2fbcb97bef2fd74abcd4d3f94dcd815250815260200160405180604001604052807f043f4bb541e209469fdd87ced06abb9a842aabeb5162cdb47368d5e188afe82c81526020017f02206ab59a572fd82aa7c2ce27818d40c1bf15e65907386f6946934487eaf0e68152508152508160600181905250600267ffffffffffffffff811115610a94577f4e487b7100000000000000000000000000000000000000000000000000000000600052604160045260246000fd5b604051908082528060200260200182016040528015610acd57816020015b610aba6119da565b815260200190600190039081610ab25790505b50816080018190525060405180604001604052807f2c322859c19d8193ded50dc9a784c544c133de9494bcd2d3a4922bcca45e178681526020017f0309d210d9a4a82b424da7223d5fba3260267827eb5d9d692a741552c8e7a95d8152508160800151600081518110610b69577f4e487b7100000000000000000000000000000000000000000000000000000000600052603260045260246000fd5b602002602001018190525060405180604001604052807f229fbb36183eadf506b8bfdd85895eac28a9c6b4295cf3ba0b839f08d673b6a481526020017f162bf3101aa7674ebce15018c3ea29eb1f82b3316e39e2b2b7547db3b55291a78152508160800151600181518110610c07577f4e487b7100000000000000000000000000000000000000000000000000000000600052603260045260246000fd5b602002602001018190525090565b610c1d6119da565b610c256119f4565b836000015181600060038110610c64577f4e487b7100000000000000000000000000000000000000000000000000000000600052603260045260246000fd5b602002018181525050836020015181600160038110610cac577f4e487b7100000000000000000000000000000000000000000000000000000000600052603260045260246000fd5b6020020181815250508281600260038110610cf0577f4e487b7100000000000000000000000000000000000000000000000000000000600052603260045260246000fd5b602002018181525050600060608360808460076107d05a03fa90508060008114610d1957610d1b565bfe5b5080610d5c576040517f08c379a0000000000000000000000000000000000000000000000000000000008152600401610d5390611dd6565b60405180910390fd5b505092915050565b610d6c6119da565b610d74611a16565b836000015181600060048110610db3577f4e487b7100000000000000000000000000000000000000000000000000000000600052603260045260246000fd5b602002018181525050836020015181600160048110610dfb577f4e487b7100000000000000000000000000000000000000000000000000000000600052603260045260246000fd5b602002018181525050826000015181600260048110610e43577f4e487b7100000000000000000000000000000000000000000000000000000000600052603260045260246000fd5b602002018181525050826020015181600360048110610e8b577f4e487b7100000000000000000000000000000000000000000000000000000000600052603260045260246000fd5b602002018181525050600060608360c08460066107d05a03fa90508060008114610eb457610eb6565bfe5b5080610ef7576040517f08c379a0000000000000000000000000000000000000000000000000000000008152600401610eee90611e36565b60405180910390fd5b505092915050565b610f076119da565b60007f30644e72e131a029b85045b68181585d97816a916871ca8d3c208c16d87cfd47905060008360000151148015610f44575060008360200151145b15610f68576040518060400160405280600081526020016000815250915050610f9f565b604051806040016040528084600001518152602001828560200151610f8d9190612092565b83610f989190611fce565b8152509150505b919050565b600080600467ffffffffffffffff811115610fe8577f4e487b7100000000000000000000000000000000000000000000000000000000600052604160045260246000fd5b60405190808252806020026020018201604052801561102157816020015b61100e6119da565b8152602001906001900390816110065790505b5090506000600467ffffffffffffffff811115611067577f4e487b7100000000000000000000000000000000000000000000000000000000600052604160045260246000fd5b6040519080825280602002602001820160405280156110a057816020015b61108d611a38565b8152602001906001900390816110855790505b5090508a826000815181106110de577f4e487b7100000000000000000000000000000000000000000000000000000000600052603260045260246000fd5b60200260200101819052508882600181518110611124577f4e487b7100000000000000000000000000000000000000000000000000000000600052603260045260246000fd5b6020026020010181905250868260028151811061116a577f4e487b7100000000000000000000000000000000000000000000000000000000600052603260045260246000fd5b602002602001018190525084826003815181106111b0577f4e487b7100000000000000000000000000000000000000000000000000000000600052603260045260246000fd5b602002602001018190525089816000815181106111f6577f4e487b7100000000000000000000000000000000000000000000000000000000600052603260045260246000fd5b6020026020010181905250878160018151811061123c577f4e487b7100000000000000000000000000000000000000000000000000000000600052603260045260246000fd5b60200260200101819052508581600281518110611282577f4e487b7100000000000000000000000000000000000000000000000000000000600052603260045260246000fd5b602002602001018190525083816003815181106112c8577f4e487b7100000000000000000000000000000000000000000000000000000000600052603260045260246000fd5b60200260200101819052506112dd82826112ed565b9250505098975050505050505050565b60008151835114611333576040517f08c379a000000000000000000000000000000000000000000000000000000000815260040161132a90611e16565b60405180910390fd5b60008351905060006006826113489190611f74565b905060008167ffffffffffffffff81111561138c577f4e487b7100000000000000000000000000000000000000000000000000000000600052604160045260246000fd5b6040519080825280602002602001820160405280156113ba5781602001602082028036833780820191505090505b50905060005b8381101561189f57868181518110611401577f4e487b7100000000000000000000000000000000000000000000000000000000600052603260045260246000fd5b60200260200101516000015182600060068461141d9190611f74565b6114279190611f1e565b8151811061145e577f4e487b7100000000000000000000000000000000000000000000000000000000600052603260045260246000fd5b6020026020010181815250508681815181106114a3577f4e487b7100000000000000000000000000000000000000000000000000000000600052603260045260246000fd5b6020026020010151602001518260016006846114bf9190611f74565b6114c99190611f1e565b81518110611500577f4e487b7100000000000000000000000000000000000000000000000000000000600052603260045260246000fd5b602002602001018181525050858181518110611545577f4e487b7100000000000000000000000000000000000000000000000000000000600052603260045260246000fd5b60200260200101516000015160006002811061158a577f4e487b7100000000000000000000000000000000000000000000000000000000600052603260045260246000fd5b602002015182600260068461159f9190611f74565b6115a99190611f1e565b815181106115e0577f4e487b7100000000000000000000000000000000000000000000000000000000600052603260045260246000fd5b602002602001018181525050858181518110611625577f4e487b7100000000000000000000000000000000000000000000000000000000600052603260045260246000fd5b60200260200101516000015160016002811061166a577f4e487b7100000000000000000000000000000000000000000000000000000000600052603260045260246000fd5b602002015182600360068461167f9190611f74565b6116899190611f1e565b815181106116c0577f4e487b7100000000000000000000000000000000000000000000000000000000600052603260045260246000fd5b602002602001018181525050858181518110611705577f4e487b7100000000000000000000000000000000000000000000000000000000600052603260045260246000fd5b60200260200101516020015160006002811061174a577f4e487b7100000000000000000000000000000000000000000000000000000000600052603260045260246000fd5b602002015182600460068461175f9190611f74565b6117699190611f1e565b815181106117a0577f4e487b7100000000000000000000000000000000000000000000000000000000600052603260045260246000fd5b6020026020010181815250508581815181106117e5577f4e487b7100000000000000000000000000000000000000000000000000000000600052603260045260246000fd5b60200260200101516020015160016002811061182a577f4e487b7100000000000000000000000000000000000000000000000000000000600052603260045260246000fd5b602002015182600560068461183f9190611f74565b6118499190611f1e565b81518110611880577f4e487b7100000000000000000000000000000000000000000000000000000000600052603260045260246000fd5b602002602001018181525050808061189790612049565b9150506113c0565b506118a8611a5e565b6000602082602086026020860160086107d05a03fa905080600081146118cd576118cf565bfe5b5080611910576040517f08c379a000000000000000000000000000000000000000000000000000000000815260040161190790611e56565b60405180910390fd5b60008260006001811061194c577f4e487b7100000000000000000000000000000000000000000000000000000000600052603260045260246000fd5b602002015114159550505050505092915050565b60405180606001604052806119736119da565b8152602001611980611a38565b815260200161198d6119da565b81525090565b6040518060a001604052806119a66119da565b81526020016119b3611a38565b81526020016119c0611a38565b81526020016119cd611a38565b8152602001606081525090565b604051806040016040528060008152602001600081525090565b6040518060600160405280600390602082028036833780820191505090505090565b6040518060800160405280600490602082028036833780820191505090505090565b6040518060400160405280611a4b611a80565b8152602001611a58611a80565b81525090565b6040518060200160405280600190602082028036833780820191505090505090565b6040518060400160405280600290602082028036833780820191505090505090565b6000611ab5611ab084611e9b565b611e76565b90508082856040860282011115611acb57600080fd5b60005b85811015611afb5781611ae18882611c19565b845260208401935060408301925050600181019050611ace565b5050509392505050565b6000611b18611b1384611ec1565b611e76565b90508082856020860282011115611b2e57600080fd5b60005b85811015611b5e5781611b448882611c40565b845260208401935060208301925050600181019050611b31565b5050509392505050565b6000611b7b611b7684611ee7565b611e76565b90508082856020860282011115611b9157600080fd5b60005b85811015611bc15781611ba78882611c40565b845260208401935060208301925050600181019050611b94565b5050509392505050565b600082601f830112611bdc57600080fd5b6002611be9848285611aa2565b91505092915050565b600082601f830112611c0357600080fd5b6001611c10848285611b05565b91505092915050565b600082601f830112611c2a57600080fd5b6002611c37848285611b68565b91505092915050565b600081359050611c4f81612257565b92915050565b6000806000806101208587031215611c6c57600080fd5b6000611c7a87828801611c19565b9450506040611c8b87828801611bcb565b93505060c0611c9c87828801611c19565b925050610100611cae87828801611bf2565b91505092959194509250565b611cc381612002565b82525050565b6000611cd6601283611f0d565b9150611ce182612161565b602082019050919050565b6000611cf9601283611f0d565b9150611d048261218a565b602082019050919050565b6000611d1c601f83611f0d565b9150611d27826121b3565b602082019050919050565b6000611d3f601683611f0d565b9150611d4a826121dc565b602082019050919050565b6000611d62601283611f0d565b9150611d6d82612205565b602082019050919050565b6000611d85601583611f0d565b9150611d908261222e565b602082019050919050565b6000602082019050611db06000830184611cba565b92915050565b60006020820190508181036000830152611dcf81611cc9565b9050919050565b60006020820190508181036000830152611def81611cec565b9050919050565b60006020820190508181036000830152611e0f81611d0f565b9050919050565b60006020820190508181036000830152611e2f81611d32565b9050919050565b60006020820190508181036000830152611e4f81611d55565b9050919050565b60006020820190508181036000830152611e6f81611d78565b9050919050565b6000611e80611e91565b9050611e8c8282612018565b919050565b6000604051905090565b600067ffffffffffffffff821115611eb657611eb5612121565b5b602082029050919050565b600067ffffffffffffffff821115611edc57611edb612121565b5b602082029050919050565b600067ffffffffffffffff821115611f0257611f01612121565b5b602082029050919050565b600082825260208201905092915050565b6000611f298261200e565b9150611f348361200e565b9250827fffffffffffffffffffffffffffffffffffffffffffffffffffffffffffffffff03821115611f6957611f686120c3565b5b828201905092915050565b6000611f7f8261200e565b9150611f8a8361200e565b9250817fffffffffffffffffffffffffffffffffffffffffffffffffffffffffffffffff0483118215151615611fc357611fc26120c3565b5b828202905092915050565b6000611fd98261200e565b9150611fe48361200e565b925082821015611ff757611ff66120c3565b5b828203905092915050565b60008115159050919050565b6000819050919050565b61202182612150565b810181811067ffffffffffffffff821117156120405761203f612121565b5b80604052505050565b60006120548261200e565b91507fffffffffffffffffffffffffffffffffffffffffffffffffffffffffffffffff821415612087576120866120c3565b5b600182019050919050565b600061209d8261200e565b91506120a88361200e565b9250826120b8576120b76120f2565b5b828206905092915050565b7f4e487b7100000000000000000000000000000000000000000000000000000000600052601160045260246000fd5b7f4e487b7100000000000000000000000000000000000000000000000000000000600052601260045260246000fd5b7f4e487b7100000000000000000000000000000000000000000000000000000000600052604160045260246000fd5b6000601f19601f8301169050919050565b7f76657269666965722d6261642d696e7075740000000000000000000000000000600082015250565b7f70616972696e672d6d756c2d6661696c65640000000000000000000000000000600082015250565b7f76657269666965722d6774652d736e61726b2d7363616c61722d6669656c6400600082015250565b7f70616972696e672d6c656e677468732d6661696c656400000000000000000000600082015250565b7f70616972696e672d6164642d6661696c65640000000000000000000000000000600082015250565b7f70616972696e672d6f70636f64652d6661696c65640000000000000000000000600082015250565b6122608161200e565b811461226b57600080fd5b5056fea2646970667358221220415ef1fd3ecbcb7465a902ebd854bedccbe6792a63306c6701944909c3b53c2864736f6c63430008040033",
  "linkReferences": {},
  "deployedLinkReferences": {}
}